:10101E00BEAFB8E6A3A1A3A1A3A1CEC2B6C831D2DA
:10102E00ECB3A3200D0A00BEAFB8E6A3A1A3A1A303
:10103E00A1CEC2B6C832D2ECB3A3200D0A00BEAF09
:10104E00B8E6A3A1A3A1A3A1CEC2B6C833D2ECB376
:10105E00A3200D0A00BEAFB8E6A3A1A3A1A3A1CE03
:10106E00C2B6C834D2ECB3A3200D0A00BEAFB8E6A8
:10107E00A3A1A3A1A3A1CEC2B6C8D2ECB3A3200D47
:10108E000A00CAB1BCE43A2573202573200D0A006C
:10109E004E6F76203137203230323300CEC2B6C892
:1010AE00313A25322E3166A1E343200D0A00CEC21D
:1010BE00B6C8323A25322E3166A1E343200D0A001E
:1010CE00CEC2B6C8333A25322E3166A1E343200D87
:1010DE000A00CEC2B6C8343A25322E3166A1E34399
:1010EE00200D0A00C6BDBEF9CEC2B6C83A25322EB4
:1010FE003166A1E343200D0A00543A20202E202011
:10110E0043202020202E2020430020202E2020436C
:10111E002020202020202E2020430054483A20203A
:0C112E0020432020544C3A202020430095
:1018C200011E00090930383A35303A333400010834
:0718D20000011A28011B0AA6
:0418FF007F507E0098
:0B190300EF1FAC0670011E4C70F622B6
:0F1661008F807F017E00121670D2A67F017E005F
:10167000D3EF9400EE940040147D6E7C00ED1D705D
:0D168000011CED4C70F7EF1F70E61E80E3BB
:01168D00223A
:10181600E4FDD2A07F08FE121903C2A01218FFD25F
:10182600A07F0E7E00121903A2A0E433FD7F147E72
:041836000002190390
:1016BB00E4FB7D08EDD39400748094804017C2A0A6
:1016CB00EB13FBD2A030A0034303807F047E0012F8
:0716DB0019031D80DFAF03BE
:0116E20022E5
:02178200AD07B1
:101784007B08EBD39400748094804016C2A0ED13C0
:1017940092A07F057E00121903D2A0EDC313FD1B96
:0217A40080E0E3
:0117A6002220
:1013F900E4FAFFFDFCF527F526F525F52412181664
:101409007FCC1217827F441217821218167FCC12D2
:1014190017827FBE1217821216BBAA071216BBAD1E
:1014290007EDFCEAFDE41202A6E4FBFA7980783DB7
:101439001200FB8F278E268D258C24E4FFFE7D204C
:101449007C41AB27AA26A925A8241200FBE4FBFAB4
:09145900F9783F12000A0202DFDB
:10183A00E4FDD2A17F08FE121903C2A11218FFD239
:10184A00A17F0E7E00121903A2A1E433FD7F147E4C
:04185A00000219036C
:1016E300E4FB7D08EDD39400748094804017C2A17D
:1016F300EB13FBD2A130A1034303807F047E0012CE
:0717030019031D80DFAF0395
:01170A0022BC
:0217A700AD078C
:1017A9007B08EBD39400748094804016C2A1ED139A
:1017B90092A17F057E00121903D2A1EDC313FD1B6F
:0217C90080E0BE
:0117CB0022FB
:10146200E4FAFFFDFCF527F526F525F52412183AD6
:101472007FCC1217A77F441217A712183A7FCC12FB
:1014820017A77FBE1217A71216E3AA071216E3AD1B
:1014920007EDFCEAFDE41202A6E4FBFA7980783D4E
:1014A2001200FB8F278E268D258C24E4FFFE7D20E3
:1014B2007C41AB27AA26A925A8241200FBE4FBFA4B
:0914C200F9783F12000A0202DF72
:10185E00E4FDD2A27F08FE121903C2A21218FFD213
:10186E00A27F0E7E00121903A2A2E433FD7F147E26
:04187E000002190348
:10170B00E4FB7D08EDD39400748094804017C2A253
:10171B00EB13FBD2A230A2034303807F047E0012A3
:07172B0019031D80DFAF036D
:011732002294
:0217CC00AD0767
:1017CE007B08EBD39400748094804016C2A2ED1374
:1017DE0092A27F057E00121903D2A2EDC313FD1B48
:0217EE0080E099
:0117F00022D6
:1014CB00E4FAFFFDFCF527F526F525F52412185E49
:1014DB007FCC1217CC7F441217CC12185E7FCC1224
:1014EB0017CC7FBE1217CC12170BAA0712170BAD16
:1014FB0007EDFCEAFDE41202A6E4FBFA7980783DE5
:10150B001200FB8F278E268D258C24E4FFFE7D2079
:10151B007C41AB27AA26A925A8241200FBE4FBFAE1
:09152B00F9783F12000A0202DF08
:10188200E4FDD2A37F08FE121903C2A31218FFD2ED
:10189200A37F0E7E00121903A2A3E433FD7F147E00
:0418A2000002190324
:10173300E4FB7D08EDD39400748094804017C2A32A
:10174300EB13FBD2A330A3034303807F047E001279
:0717530019031D80DFAF0345
:01175A00226C
:0217F100AD0742
:1017F3007B08EBD39400748094804016C2A3ED134E
:1018030092A37F057E00121903D2A3EDC313FD1B20
:0218130080E073
:0118150022B0
:10153400E4FAFFFDFCF527F526F525F524121882BB
:101544007FCC1217F17F441217F11218827FCC124C
:1015540017F17FBE1217F1121733AA07121733AD12
:1015640007EDFCEAFDE41202A6E4FBFA7980783D7B
:101574001200FB8F278E268D258C24E4FFFE7D2010
:101584007C41AB27AA26A925A8241200FBE4FBFA78
:09159400F9783F12000A0202DF9F
:101370001213F98E1C8F1DD3E51D94B0E51C940447
:101380004006751C04751DB01214628E128F13D3A3
:10139000E51394B0E512940440067512047513B079
:1013A0001214CB8E148F15D3E51594B0E514940464
:1013B00040067514047515B01215348E168F17D3A8
:1013C000E51794B0E516940440067516047517B039
:1013D000E5132515FFE5123514FEE51D2FFFE51C6D
:1013E0003EFEE5172FFFE5163EFEEF7802CEC31353
:0913F000CE13D8F9F5198E18226C
:08190E00C2A7121661C2A62255
:10168E007C037DE81205D17E007F64CFCDCFCECC1A
:10169E00CE1205D17F0A7E00CFCDCFCECCCE120595
:0516AE00D1EF2430FF24
:0816B300D2A7121661C2A622A3
:101604007F3812190E7F0C12190E7F0612190E7FE5
:101614000112190E7F8012190EE4FBEBC3941074AF
:101624008094805013EB90110793FF1216B37F033D
:101634007E001216700B80E37FC012190EE4FBEBE0
:10164400C39410748094805013EB90111893FF127C
:0C16540016B37F037E001216700B80E3BB
:011660002267
:100EB400E508600302101D7F8212190EAE1CAF1DDF
:100EC4007C037DE81205D17F641216A4AE1CAF1D0D
:100ED40012168E7F8512190EAE1CAF1D7C037DE8A1
:100EE4001205D17E007F64CFCDCFCECCCE1205D1FA
:100EF4007E007F0ACFCDCFCECCCE1205D1ED2430EB
:100F0400FF1216B37F8612190E7FDF1216B37F8A83
:100F140012190EAE12AF137C037DE81205D17E00C8
:100F24007F641216A6AE12AF1312168E7F8D12199D
:100F34000EAE12AF137C037DE81205D17E007F64F0
:100F4400CFCDCFCECCCE1205D17E007F0ACFCDCF70
:100F5400CECCCE1205D1ED2430FF1216B37F8E1203
:100F6400190E7FDF1216B37FC012190EAE14AF151F
:100F74007C037DE81205D17E007F641216A6AE14B0
:100F8400AF1512168E7FC312190EAE14AF157C0363
:100F94007DE81205D17E007F64CFCDCFCECCCE12BA
:100FA40005D17E007F0ACFCDCFCECCCE1205D1EDB8
:100FB4002430FF1216B37FC412190E7FDF1216B34A
:100FC4007FCA12190EAE16AF177C037DE81205D145
:100FD4007E007F641216A6AE16AF1712168E7FCD52
:100FE40012190EAE16AF177C037DE81205D17E00F0
:100FF4007F64CFCDCFCECCCE1205D17E007F0ACF79
:10100400CDCFCECCCE1205D1ED2430FF1216B37F56
:0A101400CE12190E7FDF1216B32270
:1018EF00758901758C3C758AB0D2AFD28CD2A92282
:100AD90030A503020B917F0112190E7FC012190E66
:100AE900E4FBEBC39410748094805013EB901129AC
:100AF90093FF1216B37F037E001216700B80E3C2B8
:100B0900A47F0A7E0012167020A5560508E5086420
:100B1900037002F508D2A47FC312190EE51A75F005
:100B29000A1205022430FF1216B3E51A75F00A12EB
:100B39000502AFF01216AF7FDF1216B37FCC121980
:100B49000EE51B75F00A1205022430FF1216B3E5F3
:100B59001B75F00A120502AFF01216AF7FDF1216ED
:100B6900B320A524E508700A7F0C12190E12160489
:100B790080EFE508640170047FC380027FCC1219FD
:100B89000E7F0F12190E80D920B352E50864017047
:100B99004CC2A47F0AFE12167020B33E051AAF1A82
:100BA900EF3395E0FEC3EF9463EE648094804003D5
:100BB900751A637FC312190EE51A75F00A12050238
:100BC9002430FF1216B3E51A75F00A120502AFF0C8
:100BD9001216AF7FDF1216B3D2A430B3FD20B2478D
:100BE900E50864017041C2A47F0AFE12167020B2A2
:100BF90033151AE51AB51B05E51B04F51A7FC3124F
:100C0900190EE51A75F00A1205022430FF1216B3FF
:100C1900E51A75F00A120502AFF01216AF7FDF125E
:100C290016B3D2A430B2FD20B347E508640270417F
:100C3900C2A47F0AFE12167020B333051BE51BB54B
:100C49001A05E51A14F51BD2A47FCC12190EE51B5F
:100C590075F00A1205022430FF1216B3E51B75F070
:100C69000A120502AFF01216AF7FDF1216B330B3C6
:100C7900FD20B252E5086402704CC2A47F0AFE123C
:100C8900167020B23E151BAF1BEF3395E0FED3EF74
:100C99009400EE648094805003E4F51B7FCC121914
:100CA9000EE51B75F00A1205022430FF1216B3E592
:100CB9001B75F00A120502AFF01216AF7FDF12168C
:060CC900B3D2A430B2FD1D
:010CCF002202
:100CD000C3E51E940A748094804005B20AE4F51EB0
:100CE000E5086003020EADC2B4C2B5C2B6C2B7AE6B
:100CF0001CAF1DFC7D0A1205D1AD1AED3395E0FC49
:100D0000C3EF9DEE9C4014300A04D2A48002C2A41A
:100D1000D2B47BFF7A10791E1218ACAE12AF137CDE
:100D2000007D0A1205D1AD1AED3395E0FCC3EF9DAD
:100D3000EE9C4014300A04D2A48002C2A4D2B57B37
:100D4000FF7A1079351218ACAE14AF157C007D0A0D
:100D50001205D1AD1AED3395E0FCC3EF9DEE9C403A
:100D600014300A04D2A48002C2A4D2B67BFF7A1047
:100D7000794C1218ACAE16AF177C007D0A1205D163
:100D8000AD1AED3395E0FCC3EF9DEE9C4014300AA4
:100D900004D2A48002C2A4D2B77BFF7A1079631276
:100DA00018ACAE1CAF1D7C007D0A1205D1AD1BED49
:100DB0003395E0FCD3EF9DEE9C5014300A04D2A48E
:100DC0008002C2A4D2B47BFF7A10791E1218ACAE96
:100DD00012AF137C007D0A1205D1AD1BED3395E0F7
:100DE000FCD3EF9DEE9C5014300A04D2A48002C2C2
:100DF000A4D2B57BFF7A1079351218ACAE14AF15BA
:100E00007C007D0A1205D1AD1BED3395E0FCD3EFDC
:100E10009DEE9C5014300A04D2A48002C2A4D2B623
:100E20007BFF7A10794C1218ACAE16AF177C007DA0
:100E30000A1205D1AD1BED3395E0FCD3EF9DEE9C7E
:100E40005014300A04D2A48002C2A4D2B77BFF7A25
:100E50001079631218ACAE18AF197C007D0A120528
:100E6000D1AD1AED3395E0FCC3EF9DEE9C400FC26F
:100E700092D294300A04D2A4802AC2A48026AE184A
:100E8000AF197C007D0A1205D1AD1BED3395E0FC56
:100E9000C3EF9DEE9C5016C294D292300A04D2A4A5
:100EA0008002C2A47BFF7A10797A0218ACD2A4D255
:040EB00092D2942224
:1012520090000312053DFF3395E0FEC3EF9436EE96
:1012620064809480506B90000412053DFF3395E03A
:10127200FEC3EF9439EE64809480504890000612C9
:10128200053DFF3395E0FEC3EF9436EE6480948013
:10129200502590000712053DFF3395E0FEC3EF9401
:1012A20039EE648094809000075002802F743012CF
:1012B20005AF900006802590000674301205AF90AD
:1012C2000004801890000474301205AF900003806F
:1012D2000B90000374301205AF90000274011205E6
:0212E2006A227E
:10113A007559FF755A10755B90755CFF755D107572
:10114A005E9E755F007560007561097B007A0079A3
:10115A00241206C61218A67559FF755A10755BAA8D
:10116A00AC1CAD1DE41202A6E4FBFA792078411208
:10117A0002048F5F8E5E8D5D8C5C7B007A00792421
:10118A001206C61218A67559FF755A10755BBCACC3
:10119A0012AD13E41202A6E4FBFA79207841120296
:1011AA00048F5F8E5E8D5D8C5C7B007A00792412E1
:1011BA0006C61218A67559FF755A10755BCEAC147F
:1011CA00AD15E41202A6E4FBFA7920784112020472
:1011DA008F5F8E5E8D5D8C5C7B007A0079241206AF
:1011EA00C61218A67559FF755A10755BE0AC16AD94
:1011FA0017E41202A6E4FBFA792078411202048F5E
:10120A005F8E5E8D5D8C5C7B007A0079241206C647
:10121A001218A67559FF755A10755BF2AC18AD19FC
:10122A00E41202A6E4FBFA792078411202048F5FE5
:10123A008E5E8D5D8C5C7B007A0079241206C67BFB
:08124A00007A0079240218ACBF
:10159D0012166C12160412166C1218EFE4F522F5E1
:1015AD002312137012166C0523E52370020522C356
:1015BD009464E522940040E91218DA120EB4120A6E
:1015CD00D9120CD01213707B007A007909121252C5
:1015DD0020900FE50C64366009E50F643660031248
:1015ED00113A20910E7F0A7E001216702091CCC206
:0715FD00A480C8D2A480C441
:1018DA007598507589205387EF758DFD758BFDE4DA
:0518EA00F5A8D28E22DA
:0618A6007B007A007924AA
:1018AC001205246010F5993099FDC299740129F93B
:0618BC00E43AFA80EB2281
:1000030002034BE86480F8E933E83360110460F0DD
:10001300ED33EC337009E8FCE9FDEAFEEBFF220463
:1000230060DED3EB9FEA9EE99DE8C2E78CF0C2F75E
:1000330095F0400CE8CCF8E9CDF9EACEFAEBCFFB2A
:1000430012031685D0F05804700320D5B3E804706A
:10005300075002B2D502035592D5EC0460F7E4CC05
:10006300C0E0C398F8603B94186008400DD0E0FBF3
:1000730002032DE4FBFAC9FC8028E830E406E4C956
:10008300FBE4CAFCE830E305E4C9CACBFCE8540747
:100093006010F8C3E913F9EA13FAEB13FBEC13FC52
:1000A300D8F130F52FC3E49CFCEF9BFFEE9AFEEDF5
:1000B30099FDD0E0FBEF4E4D4C701222DB0302039F
:1000C30052EC2CFCEF33FFEE33FEED33FDED30E766
:1000D300EB02032DEF2BFFEE3AFEED39FDD0E0FBF3
:1000E30050130BBB0003020355ED13FDEE13FEEF9C
:0800F30013FFEC13FC02032DC6
:1000FB00EC4D6011E8497017ED33EC3304600DE4FF
:10010B00FCFFFEFD22E933E8330470F802034B12C7
:10011B00031658046009E4CC2481500628500902C8
:10012B000355284003020352C0E0EB4A7044B980E8
:10013B0006D0E0FB020341EF4E701CBD8008EBFFC5
:10014B00EAFEE9FD80EBE98DF0A4FEE5F00201E4A7
:10015B00E9CDF9EAFEEBFFEF89F0A4FCE5F0CE89DF
:10016B00F0A42EFFE435F0CD89F0A42DFEE435F09C
:10017B008067EF4E7005BD80D780C3EF8BF0A4ACCA
:10018B00F0EE8BF0A42CFCE435F0F8EF8AF0A42C05
:10019B00E5F038FCE433CB8DF0A42CFCE5F03BF818
:1001AB00EE8AF0A42CFCE5F038F8E433CF89F0A408
:1001BB002CFCE5F038CF3400CE89F0A42FFFE5F00E
:1001CB003EFEE433C98DF0A42EFEE5F039CD8AF066
:1001DB00A42FFFE5F03EFEE43DFD33D0E0FB5007DE
:1001EB000BBB000F020355EC2CFCEF33FFEE33FE81
:0601FB00ED33FD02032DAF
:10020100020355EC5D046005E85904700302034BD9
:10021100120316580460F6EC4860F2EC7004FDFE1F
:10022100FF22C860DB2481C85009C39860025006D0
:100231000203529850CAF582E9294B4A7005AB82F4
:1002410002034175F0007C1A7880C3EF9BEE9AEDB2
:1002510099400DC3EF9BFFEE9AFEED99FDE842F048
:10026100DC23ACF0D0E0FFD0E0FED0E0FDAB82209B
:10027100E7101BEB60BAEC2CFCEF33FFEE33FEED25
:1002810033FD02032DE803F830E705C0F075F000F7
:10029100EF2FFFEE33FEED33FD40B830E7C280AA09
:1002A10075F020800E75F010800575F0087D007ED8
:1002B100007F003392D530D503120626EC3340106F
:1002C100EF33FFEE33FEED33FDEC33FCD5F0ED22E1
:0E02D100E5F0247EA2D513CC92E7CDCEFF221D
:1002DF00EDD2E7CD33EC3392D524814006E4FFFE17
:1002EF00FDFC22FCE4CFCECDCC24E0501174FF8076
:1002FF00EDC3CC13CCCD13CDCE13CECF13CF047013
:07030F00F030D5DE020626E6
:10066A00E56D2459F8E6056D227856300702785967
:10067A00E475F0011206340205242000EB7F2ED225
:10068A00008018EF540F2490D43440D4FF30040B68
:10069A00EF24BFB41A0050032461FFE56E6002150F
:1006AA006E0571E5717002057030070D7856E475B4
:1006BA00F001120634EF02059D02175B7403D2079C
:1006CA008003E4C207F56D8B568A578958E4F56EA4
:1006DA00F570F571E56E60077F201206A580F57545
:1006EA006FFFC201C200C202C203C205C206C2082B
:1006FA00120673FF700D3007057F001206B6AF7140
:10070A00AE7022B4255FC2D5C204120673FF24D08C
:10071A00B40A00501A75F00A786E30D50508B6FF8B
:10072A000106C6A426F620D5047002D20380D92475
:10073A00CFB41A00EF5004C2E5D2040209A3D201D1
:10074A0080C6D20080C0D20280BCD2D580BAD2057F
:10075A0080B47F201206A52002077401B56E0040FE
:10076A00F112066AFF1206A50206DED208D2068038
:10077A009512066AFB12066AFA12066AF94A4B7061
:10078A0006799A7A0A7BFF20022EE56E602A7E009D
:10079A008E8275830012053D60060EEE656F70F05D
:1007AA00C2D5EBC0E0EAC0E0E9C0E0EE120A03D02D
:1007BA00E0F9D0E0FAD0E0FB120524FF60AAEBC012
:1007CA00E0EAC0E0E9C0E01206A5D0E02401F9D0D1
:1007DA00E03400FAD0E0FBE56F0460DCD56FD98025
:1007EA0087D20280A21209E660F7E56F700104124F
:1007FA000360A96F600DE56F600914F56F120A8D29
:10080A00EF60F3EA30E702F404C3995077EAF4257B
:10081A006F0430E701E404F56F800D1209E660C148
:10082A00EA056F256F120360EA786CF630E701E497
:10083A00256F04D56F0420050114120A03E4C0E0F1
:10084A00120A8D786CE6601320E70714F612068DFB
:10085A00802204F6D0E014C0E07F0012068DE56F16
:10086A006007120684156F800B300503120684D0C8
:10087A00E00206DED0E00480C51209E660A0E56F5A
:10088A0004120360786CEAF6E56F20050260010441
:05089A002404120A0312
:10089F0074FF04C0E0120A8D12068DE56F20050269
:1008AF006003120684D0E0B56FE87F451206977893
:1008BF006CE67F2B30E7047F2DF404C0E01206A511
:1008CF00D0E075F00A84C0F012068ED0E012068ECA
:1008DF000206DE791080027908C206C2088008D2AB
:1008EF00D5790A8004790AC2D5E56F047002F56FD5
:1008FF00E4FAFDFEFF12066AFC7B082001131206C4
:10090F006AFD7B1030000A12066AFE12066AFF7B30
:10091F0020EC3382D592D55013C3E43000069FFFED
:10092F00E49EFEE42001039DFDE49CFCE4CBF8C2B1
:10093F0001EC700CCFCECDCCE824F8F870F3801713
:10094F00C3EF33FFEE33FEED33FDEC33FCEB33FB44
:10095F00994002FB0FD8E9EB300105F8D0E0C4480D
:10096F00B201C0E00AEC4D4E4F78207B0070C2EA16
:10097F00B56F0040BCC0E0120A05D0F0D0E02001F6
:10098F0004C4C0E0C4B201C0F012068ED0F0D5F09E
:10099F00EB0206DE120644077B5308E258074C4C65
:1009AF0007484208E64F08EE4408EE49076143083E
:1009BF00F45508254608834507EF470ABA500750F4
:1009CF002D07542E07772B0758230775200AA32AC4
:1009DF000710480000076FE56FB4FF03756F06122D
:1009EF00066AFC12066AFD12066AFE12066AFF7894
:1009FF006502038F790AA2D5200314300509B910B7
:100A0F00020404B9080104A2D520060250010420F3
:100A1F0002689202B56E005034C0E07F2030031997
:100A2F007F30A20272067205500F120A5CC202C218
:100A3F0006C205C2087F30800F300503E9C0E012FF
:100A4F0006A5300503D0E0F9D0E0B56ECC30051720
:100A5F007F30B9100C1206A57F583004077F7880BD
:100A6F0003B908031206A53002057F2D0206A57FE4
:100A7F00202008F87F2B2006F322920280CF7F00E0
:100A8F00B4070050052465F8E6FF22286E756C6CDC
:100A9F002900D20112066A3001F8C201786E30D5F2
:100AAF000108F60207102D5043495812066A240315
:100ABF00B405004001E4900AB593120696743A12F9
:0A0ACF000696D203756E040208E2D9
:10031600E9D2E7C933E833F892D5EDD2E7CD33EC2D
:0703260033FC5002B2D522A6
:10032D00EC30E7100FBF000C0EBE00080DBD000431
:10033D000BEB6014A2D5EB13FCED92E7FD2274FFDD
:10034D00FCFDFEFF22E480F8A2D574FF13FC7D8036
:03035D00E480EF4A
:10036000F920E72824F950037907E4F42402FB1864
:10037000DBFDE624FB5014E9600DE4F618E604F614
:0F038000B40A08E4F6D9F57401F60A22C2D522B0
:10038F00ED33EC3392D5FA602AB4FF33EDC2E77B3D
:10039F00FF60067A0379B4E4227A0379BD20D5048D
:1003AF007A0379B8224E614E002B494E46002D49F3
:1003BF004E4600E47A08F608DAFC7B00740722E860
:1003CF00C0E0ECC0E0EDC0E0EEC0E0EFC0E0EA75E9
:1003DF00F010A4CAABF075F04DA42BFBE435F0FC84
:1003EF00EA2410FAEB34C5FBEC34D9FCEDC2E7FF7D
:1003FF0075F056A4F42411C5F0F434C58FF0A42A77
:10040F00E5F03BE43CF620E7141204C2D0E0FFD045
:10041F00E0FED0E0FDD0E0FC1202048014F40412E0
:10042F0004C2D0E0FFD0E0FED0E0FDD0E0FC12002F
:10043F00FBD0E0F8E6FAEDD2E7CD33EC332482FBC4
:10044F00E4C3CF33CFCE33CECD33CD33DBF37B0706
:10045F0075F00A846004F6081B0AE5F0F6088FF0C1
:10046F00740AA4FFACF08EF0740AA42CFEACF0500A
:10047F00010C8DF0740AA42CFDE435F0F608DBDED8
:03048F00740722CD
:100492003F8000004120000042C80000447A000072
:1004A200461C400047C35000497424004B189680F4
:1004B2004CBEBC205A0E1BCA6753C21C749DC5AEEB
:1004C200FB60065407601C23231204F0EB543860CF
:1004D200091204DC1204EB1200FBECF8EDF9EEFA5F
:1004E200EFCB22EB1204EB80F1543803241C90046E
:1004F20092FE93FC0EEE93FD0EEE930ECE93FF2230
:030000000212E405
:0C12E400787FE4F6D8FD75817102132BB1
:10050200C2D530F707B2D563F0FF05F030E70CB281
:10051200D5F4048463F0FF05F080018430D502F441
:020522000422B1
:10052400BB010689828A83E0225002E722BBFE02D5
:09053400E32289828A83E4932208
:10053D00BB010CE58229F582E5833AF583E0225073
:10054D0006E92582F8E622BBFE06E92582F8E222BD
:0D055D00E58229F582E5833AF583E49322D7
:10056A00BB010FF8E58229F582E5833AF583E02895
:10057A00F0225009C58229F8E58226F622BBFE0937
:10058A00C58229F8E22582F222F8EA2583F583E971
:03059A0093282281
:10059D00BB010689828A83F0225002F722BBFE013D
:0205AD00F32237
:1005AF00F8BB010DE58229F582E5833AF583E8F082
:1005BF00225006E92582C8F622BBFE05E92582C82E
:0205CF00F22216
:1005D100BC000BBE0029EF8DF084FFADF022E4CC0E
:1005E100F875F008EF2FFFEE33FEEC33FCEE9DECD7
:1005F100984005FCEE9DFE0FD5F0E9E4CEFD22ED1D
:10060100F8F5F0EE8420D21CFEADF075F008EF2F66
:10061100FFED33FD4007985006D5F0F222C398FD57
:050621000FD5F0EA22F4
:0E062600C3E49FFFE49EFEE49DFDE49CFC22E5
:10063400FAE6FB0808E6F925F0F618E6CA3AF622C7
:10064400D083D082F8E4937012740193700DA3A345
:1006540093F8740193F5828883E473740293686059
:06066400EFA3A3A380DF59
:10175B00EFB40A07740D121766740A309811A89922
:10176B00B8130CC2983098FDA899C298B811F630EE
:07177B0099FDC299F59922C6
:1012F00002159DE493A3F8E493A34003F68001F262
:1013000008DFF48029E493A3F85407240CC8C333FE
:10131000C4540F4420C8834004F456800146F6DFCD
:10132000E4800B01020408102040809018C2E47E83
:10133000019360BCA3FF543F30E509541FFEE493C2
:10134000A360010ECF54C025E060A840B8E493A389
:10135000FAE493A3F8E493A3C8C582C8CAC583CAB4
:10136000F0A3C8C582C8CAC583CADFE9DEE780BE6C
:0118D900000E
:00000001FF
