:020000040800F2
:10000000B02C00200101000889100008810C0008B4
:10001000190F0008B3070008F320000800000000D3
:10002000000000000000000000000000DD180008D3
:10003000C109000800000000C5170008C919000820
:100040001B0100081B0100081B0100081B01000820
:100050001B0100081B0100081B0100081B01000810
:100060001B0100081B0100081B0100081B01000800
:100070001B0100081B0100081B0100081B010008F0
:100080001B0100081B0100081B0100081B010008E0
:100090001B0100081B0100081B0100081B010008D0
:1000A0001B0100081B0100081B0100081B010008C0
:1000B0002D1A0008351B00081B0100081B01000851
:1000C0001B0100081B0100081B0100081B010008A0
:1000D0001B010008B51D0008291E00081B010008AF
:1000E0001B0100081B0100081B010008DFF80CD0F1
:1000F00000F014FB00480047F9290008B02C00204C
:100100000648804706480047FEE7FEE7FEE7FEE7B1
:10011000FEE7FEE7FEE7FEE7FEE7FEE7CD19000893
:10012000ED0000082DE9FE4F804681EA0300C00F74
:100130000C46009021F0004123F00045B8EB02008E
:10014000A94105D24046214690461C460B46024630
:1001500023F00040104347D0270DC7F30A00C3F334
:100160000A510290401A019040286BDAC3F3130041
:1001700040F4801B0098924620B10023D2EB030A82
:1001800063EB0B0B01985946C0F14002504600F05A
:100190001EFA06460D4650465946019A00F036FAB8
:1001A00010EB08006141002487EA115284EAE773EA
:1001B0001A4340D0009A62B3019A012A4FEA0752CB
:1001C00015DC001B61EB02014FF0004202EA07520E
:1001D000CDE90042001C41F5801132462B4600F06B
:1001E00036FA03B0BDE8F08F40462146F9E7001B20
:1001F00061EB0201001C41F5801300185B412018DF
:10020000A2F5001747EB030140EAD570B6196D411E
:1002100011E06D084FEA360645EAC0754FEA07520D
:10022000001B61EB0201001C41F5801149084FEAF7
:1002300030000019514132462B4603B0BDE8F04F63
:1002400000F0F6B90098012240000023D0EB020232
:1002500063EBE073009821464FEAE074B8EB0000CE
:1002600061EB0401E9E783F000435BE781F00041C3
:1002700058E72DE9FE4F81EA030404F0004421F021
:10028000004100944FF0000B23F0004350EA0104BA
:100290005ED052EA03045BD0C3F30A54C1F30A559B
:1002A0002C44A4F2F3340194A0FB0254C1F31301D3
:1002B00041F48011C3F3130343F4801301FB0244A0
:1002C00000FB034E840A970A44EA815447EA8357A5
:1002D000A4FB076802958D0A05FB07854FEA932C5E
:1002E00004FB0C542705029D4FEA065847EA1637CF
:1002F000B5EB08056EEB070C870E920E47EA8117E7
:1003000042EA8312A7FB0201B6EB0B0164EB000487
:100310002B0D43EA0C335E1844EB1C50DA46514671
:10032000E7FB0201C5F313044FEA0B3343EA14530E
:100330004FEA0432019C43EA0603A4F10C04029440
:10034000009CCDE900B400F082F903B0BDE8F08F65
:1003500000200146F9E72DE9F04D81EA030404F09D
:10036000004B21F0004514464FF0000A23F00041F5
:1003700050EA050220D054EA01021DD0C5F30A5705
:100380000246C5F31303C1F31300C1F30A5640F448
:10039000801543F48013A7EB0608101BD64608F21D
:1003A000FD3873EB050002D308F1010801E0921853
:1003B0005B41B8F1000F03DA00200146BDE8F08D83
:1003C00000204FF48011064684460EE0171B73EBA5
:1003D000050705D3121B63EB050306434CEA010C2A
:1003E00049084FEA300092185B4150EA0107EDD10D
:1003F00052EA030012D082EA040083EA05010843AE
:1004000005D0101BAB4106D20122002306E00022DA
:100410004FF0004302E06FF0010253101AEB0600A8
:100420004CEB085110EB0A0041EB0B01BDE8F04D1D
:1004300000F0FEB80EB5C10F80EAE0700844CA07AC
:10044000002140F233438DE80E000A460B4600F0CF
:10045000FEF803B000BD0EB540F233410291002119
:10046000CDE900110A460B4600F0F1F803B000BDDB
:1004700070B5C1F30A5201F000450024C1F3130125
:1004800040F2FF3341F480119A4201DA002070BD3E
:1004900040F233439A42A2F2334203DC524200F06C
:1004A000A5F800E090402C43F1D0404270BDC1F36C
:1004B0000A5210B5C1F3130140F2FF3341F4801129
:1004C0009A4201DA002010BD40F233439A42A2F270
:1004D000334203DC524200F089F810BD904010BD59
:1004E00030B5041E71F1000404DB4FF000444042BB
:1004F00064EB0101141E73F1000405DB1C464FF090
:100500000043524263EB04038B4208BF824230BD7A
:1005100030B5041E71F1000404DB4FF0004440428A
:1005200064EB0101141E73F1000405DB1C464FF05F
:100530000043524263EB0403994208BF904230BD2E
:1005400030B50B46014600202022012409E021FAA3
:1005500002F59D4205D303FA02F5491B04FA02F5A0
:100560002844151EA2F10102F1DC30BD2DE9F05F37
:100570000546002092469B46884606468146402412
:100580001BE0284641464746224600F02FF85346D6
:100590005A46C01A914110D311461846224600F01F
:1005A00016F82D1A67EB01084F462246012000215C
:1005B00000F00DF817EB00094E41201EA4F10104D4
:1005C000DFDC484631462A464346BDE8F09F202AF4
:1005D00004DB203A00FA02F1002070479140C2F19A
:1005E000200320FA03F3194390407047202A04DBCC
:1005F000203A21FA02F00021704721FA02F3D0409C
:10060000C2F120029140084319467047202A06DBB8
:10061000CB17203A41FA02F043EAE07306E041FAD0
:1006200002F3D040C2F120029140084319467047BE
:1006300010B5141E73F1000408DA401C41F10001EA
:1006400092185B411A4301D120F0010010BD2DE941
:10065000F04D92469B4611B1B1FA81F202E0B0FA38
:1006600080F220329046FFF7B2FF04460F4640EA80
:100670000A0041EA0B0153465A46084313D011467B
:1006800053EA010019D0C8F140025046FFF7AEFF0F
:1006900005460E46504659464246FFF798FF084326
:1006A00005D0012004E020463946BDE8F08D002049
:1006B000054346EAE0762C4337430A986305E40A8B
:1006C000A0EB08000022FD0A44EA47540A3002D594
:1006D00000200146E9E7010510196941DDE90845F7
:1006E00000196941BDE8F04DA2E7C1F30A52C1F318
:1006F000130140F2FF3341F480119A4202DA0020E4
:100700000146704740F233439A42A2F2334202DC80
:100710005242FFF76BBFFFF75ABF0000064C074D70
:1007200006E0E06840F0010394E8070098471034C1
:10073000AC42F6D3FFF7DEFCA0380008C038000852
:100740000246002006E0431C32F8133022F8103035
:10075000431CD8B24B1E8342F5DC70472DE9F041B3
:1007600000F0F2F800F0DAF800F03EF8CC2000F0EB
:10077000F7F8BE2000F0F4F800F098F8074600F013
:1007800095F80646072E05DDF043C6B2F843C7B21A
:10079000012500E000253446200204B2E01904B22D
:1007A000601904B215B92046BDE8F081604200B27C
:1007B000FAE700BFFEE7000008B50121082001F0BC
:1007C00013F810208DF8030003208DF8020001209B
:1007D000ADF800006946034800F08EF901F09EFA7A
:1007E00008BD0000000C014010B50024002000F0FE
:1007F00045F804E0601CC4B2012000F0FAF80221C0
:100800000E4800F004FA08B1C82CF3DBC82C01DB59
:10081000012010BD002404E0601CC4B2012000F0DF
:10082000E8F80221054800F0F2F908B9F02CF3DBF2
:10083000F02C01DB0120ECE70020EAE7000C01408E
:1008400008B50121082000F0CFFF10208DF803002B
:1008500003208DF802000220ADF80000694606482A
:1008600000F04AF90221044800F0DCF900F056F8E3
:10087000FFF7BAFF08BD0000000C014038B5044680
:1008800003208DF802000220ADF800001CB11020FA
:100890008DF8030002E048208DF803006946024805
:1008A00000F02AF938BD0000000C014070B50026A8
:1008B000002508E000F00CF80446E00140EA66007C
:1008C000C6B2681CC5B2082DF4DB304670BD00000E
:1008D00010B50120FFF7D2FF02210F4800F0A0F968
:1008E000022000F086F802210B4800F09BF900205E
:1008F000FFF7C4FF0C2000F07CF80221064800F04E
:1009000086F9012801D1012400E00024322000F002
:1009100070F8204610BD0000000C014010B5012009
:10092000FFF7ACFF0221074800F07AF940F2EE2011
:1009300000F05FF80221034800F074F90F2000F086
:1009400058F810BD000C014010B5FFF7E7FFFFF7A6
:100950004BFFCC2000F004F8442000F001F810BD5B
:1009600070B504460120FFF789FF002522E004F05E
:100970000106641076B10221104800F051F90220FE
:1009800000F037F802210D4800F04CF93C2000F04F
:1009900030F80DE00221094800F042F93C2000F057
:1009A00028F80221054800F03DF9022000F021F866
:1009B000681CC5B2082DDADB70BD0000000C0140D8
:1009C000704700B5034603E04FF47A7000F011F869
:1009D0001800A3F10103F7D100BD10B5044603E0F0
:1009E0004FF47A70FFF7EDFF2000A4F10104F7D176
:1009F00010BD00EBC001C9004FF0E02251610021A1
:100A000091610521116100BF4FF0E021096901F4F6
:100A100080310029F8D004214FF0E02211617047A5
:100A200010B500202AE0002125E0164A02EBC01292
:100A3000525C012A0FD1C208134B03EBC212525C65
:100A400000F007040123A3401A43C3080E4C04EB33
:100A5000C3135A540EE0C2080B4B03EBC212525C94
:100A600000F007040123A3409A43C308064C04EB9B
:100A7000C3135A54491C8029D7D3401C4028D2D3D1
:100A800010BD000038080020380000202DE9F0419A
:100A900006460F469046344621E03D461BE0E217ED
:100AA00004EB5272D210124B03EB882303EBC212F9
:100AB000525DE31704EB5373DB10A4EBC30C01236B
:100AC00003FA0CF31A4022B101200A4901EBC411C8
:100AD0004855A81CC5B2802DE1DBA01CC4B2402C37
:100AE000DBDBFFF79DFF00F0E5FCBDE8F0810000D7
:100AF000A0340008380800202DE9F0410246002506
:100B00000026002000230024002791F803C00CF0E9
:100B10000F0591F803C00CF0100CBCF1000F03D0CE
:100B200091F802C04CEA050591F800C0BCF1000F35
:100B300031D0146800202BE04FF0010C0CFA00F3C8
:100B4000B1F800C00CEA03069E4220D183004FF0AA
:100B50000F0C0CFA03F7BC4305FA03FC4CEA04043F
:100B600091F803C0BCF1280F06D14FF0010C0CFA2C
:100B700000FCC2F814C00AE091F803C0BCF1480FB1
:100B800005D14FF0010C0CFA00FCC2F810C0401C5B
:100B90000828D1D31460B1F800C0BCF1FF0F34DDD8
:100BA000546800202EE000F1080C4FF0010808FA0C
:100BB0000CF3B1F800C00CEA03069E4221D1830079
:100BC0004FF00F0C0CFA03F7BC4305FA03FC4CEA98
:100BD000040491F803C0BCF1280F05D100F1080C02
:100BE00008FA0CF8C2F8148091F803C0BCF1480F61
:100BF00007D100F1080C4FF0010808FA0CF8C2F810
:100C00001080401C0828CED35460BDE8F081024615
:100C1000002093680B400BB1012000E000207047DA
:100C200041617047016170470AB1016100E04161B3
:100C30007047000010B500201BE0002116E0C2083C
:100C40000D4B03EBC212525C00F007040123A340DA
:100C50001A402AB10122094B03EBC0135A5404E095
:100C60000022064B03EBC0135A54491C8029E6D3DB
:100C7000401C4028E1D310BD380000203808002077
:100C800000BFFEE72DE9F05F03220121084600F0D6
:100C9000C3FC04220221012000F0BEFC0522032136
:100CA000012000F0B9FC06220421012000F0B4FC70
:100CB0003A220921012000F027FC5048B0F9000039
:100CC000002805DD4EA20A21012000F047FD04E0C6
:100CD0004CA20A21012000F041FD4848B0F9004033
:100CE000E01704EB1070021102230B21012000F029
:100CF00013FD45A20D21012000F030FD3F48B0F961
:100D000000A04FEAEA710AEB11710911AAEB011078
:100D1000FFF790FB80463D4A3D4BFFF71CFB064624
:100D200000223C4BFFF7FEF90446FFF7C0FB834669
:100D300001235A460E21184600F0EEFC7F220F21B7
:100D4000012000F0E1FB43221021012000F0DCFB38
:100D500007220121032000F05FFC09220221032069
:100D600000F05AFC05220321084600F055FC06223B
:100D70000421032000F050FC3A220921032000F056
:100D8000C3FB0223244802780A21032000F0C4FC9C
:100D90007F220C21032000F0B7FB43220D2103200A
:100DA00000F0B2FB08220121042000F035FC0922EA
:100DB0000221042000F030FC05220321042000F071
:100DC0002BFC06220421084600F026FC3A220921C9
:100DD000042000F099FB0223104802780A21042025
:100DE00000F09AFC7F220C21042000F08DFB4322AE
:100DF0000D21042000F088FBBDE8F09F28000020B2
:100E00002B0000002D0000002E0000009A999999F7
:100E10009999F93F0000E03F2300002022000020C4
:100E20002DE9F05F0A220121084600F0F5FB0B22B4
:100E30000221012000F0F0FB05220321012000F037
:100E4000EBFB06220421012000F0E6FB3A220921F7
:100E5000012000F059FB2848B0F90000002805DD0A
:100E600026A20A21012000F079FC04E024A20A2134
:100E7000012000F073FC2048B0F90040E01704EBBB
:100E80001070021102230B21012000F045FC1DA26D
:100E90000D21012000F062FC1748B0F900A04FEAD4
:100EA000EA710AEB11710911AAEB0110FFF7C2FAFE
:100EB0008046154A154BFFF74EFA06460022144BA2
:100EC000FFF730F90446FFF7F2FA834601235A464A
:100ED0000E21184600F020FC7F220F21012000F097
:100EE00013FB43221021012000F00EFB094800F003
:100EF0000FF9BDE8F09F0000280000202B00000043
:100F00002D0000002E0000009A9999999999F93FB7
:100F10000000E03F3828002000BFFEE700B587B0A2
:100F20000121880300F060FC0121042000F05CFC3A
:100F300018208DF81B0003208DF81A004FF4007064
:100F4000ADF8180006A92148FFF7D6FD48208DF816
:100F50001B0003208DF81A004FF48060ADF81800D4
:100F600006A91A48FFF7C8FD4FF41650029000205A
:100F7000ADF814000C20ADF812000020ADF8100000
:100F8000ADF80E00ADF80C0002A9114801F03CF8D4
:100F9000012240F225510E4801F010F84FF4A060F4
:100FA00000F0ACF825208DF8040001208DF8070032
:100FB0008DF805008DF8060001A800F067F8012102
:100FC000034800F0B8FF07B000BD00000008014072
:100FD0000038014000B587B00121480400F0F4FB5F
:100FE0000121042000F000FC18208DF81B000320D4
:100FF0008DF81A000420ADF8180006A92048FFF764
:101000007BFD48208DF81B0003208DF81A00082076
:10101000ADF8180006A91A48FFF76EFD4FF41650F8
:1010200002900020ADF814000C20ADF81200002052
:10103000ADF81000ADF80E00ADF80C0002A9114893
:1010400000F0E2FF012240F225510E4800F0B6FF09
:101050004FF4A06000F052F826208DF80400012023
:101060008DF8070002208DF805008DF8060001A814
:1010700000F00CF80121034800F05DFF07B000BD4F
:1010800000080140004400407047000070B5002196
:1010900000230F22C47804B3154C246804F4E064E0
:1010A000C4F5E064210AC1F10403CA40447804FA9B
:1010B00003F184781440214309010E4C0678A155B0
:1010C000047804F01F050124AC4005786D11AD00D3
:1010D00005F1E025C5F8004109E0047804F01F059A
:1010E0000124AC40044D0678761145F8264070BDC9
:1010F0000CED00E000E400E080E100E00249014383
:10110000024A1160704700000000FA050CED00E093
:101110002DE9F84F8246FFF78DFD4FF000090BE0F7
:101120000121524800F8091000F5B05000F80910EC
:1011300009F1010000F0FF09B9F1800FF0DB4FF079
:10114000000907243FE03AF91900FFF773F9074651
:101150000022474BFEF7E6FF0546FFF7A8F90F38D8
:101160004006000E00904FF0110B22E00020414994
:1011700001EBCB11085500213E4800EBCB12601C5F
:1011800011543C4800EBCB12A01C1154394800EB21
:10119000CB12E01C1154374800EBCB12201D115428
:1011A000344800EBCB12601D11540BF1010000F02C
:1011B000FF0BBBF13C0FD9DB09F1010000F0FF0987
:1011C00004F10C00C4B2B9F10A0FBCDB4FF0000906
:1011D000072442E03AF91900FFF72CF905460022EE
:1011E000234BFEF79FFF0746FFF761F90F384006D4
:1011F000000E00900098C0F13C0000F0FF0B22E0D0
:1012000001201C4901EBCB1108550121194800EBC5
:10121000CB12601C1154174800EBCB12A01C1154C8
:10122000144800EBCB12E01C1154124800EBCB1217
:10123000201D11540F4800EBCB12601D11540BF10F
:10124000010000F0FF0BBBF13C0FD9DB09F10100FD
:1012500000F0FF0904F10C00C4B2B9F10A0FB9DBC8
:10126000FFF7DEFB00F026F9BDE8F88F381000200C
:101270000000E03F3808002070B5002413E0002192
:10128000204600F02FF9002509E0002000F08AFA3E
:101290000020074901EBC4114855681CC5B2802DD8
:1012A000F3DB601CC4B2082CE9DBFFF7C3FC70BDA4
:1012B0003800002008B50121082000F095FA102020
:1012C0008DF8030003208DF802002020ADF8000007
:1012D00069460A48FFF710FC4020ADF80000694657
:1012E0000648FFF709FC012220210448FFF79CFC77
:1012F000012240210148FFF797FC08BD000C014086
:1013000070B50546002413E08020204100EA050264
:1013100040210E48FFF788FC012220210B48FFF7EF
:1013200083FC002220210948FFF77EFC601CC4B228
:10133000082CE9DB012220210448FFF775FC00227C
:1013400020210248FFF770FC70BD0000000C014036
:1013500010B5012240210948FFF766FC0122202137
:101360000648FFF761FC002240210448FFF75CFCBF
:10137000002220210148FFF757FC10BD000C01405E
:1013800010B5002240210748FFF74EFC0122202122
:101390000448FFF749FC012240210248FFF744FCC2
:1013A00010BD0000000C014070B5002406E00025CF
:1013B00000E06D1CB5F57A7FFBD3641CB4F57A7F31
:1013C000F5D3FFF777FFAE2000F0DCF9D52000F071
:1013D000D9F9802000F0D6F9A82000F0D3F93F20F9
:1013E00000F0D0F9D32000F0CDF9002000F0CAF9C8
:1013F000402000F0C7F9A12000F0C4F9C82000F097
:10140000C1F9DA2000F0BEF9122000F0BBF981200A
:1014100000F0B8F9CF2000F0B5F9D92000F0B2F90A
:10142000F12000F0AFF9DB2000F0ACF9302000F043
:10143000A9F9A42000F0A6F9A62000F0A3F98D20B8
:1014400000F0A0F9142000F09DF9AF2000F09AF907
:10145000FFF712FF70BD70B504460D46224600210D
:101460000846FFF713FB2846FFF7ABFA2246012197
:101470000020FFF70BFB2846FFF7A3FA22460021C6
:101480000120FFF703FB2846FFF79BFA22460121C4
:101490000846FFF7FBFA2846FFF793FA70BD10B530
:1014A0000246012000E050430B00A1F10101FAD1F6
:1014B00010BD000070B500240FE0E0B2002100F084
:1014C00011F8002506E0064901EBC411485D00F063
:1014D00069F96D1C802DF6D3641C082CEDD370BD0A
:1014E0003800002070B505460C4645F0B00000F00D
:1014F00049F9102141EA141000F044F904F00F00FA
:1015000000F040F970BD00002DE9F04105460E469F
:101510001746721ED206110E6A1E5206100EFFF7F3
:10152000E1FF681E400038490860701EC00037495E
:101530000860002423E0A7F12001354A02EB0111E5
:10154000085D00F02FF9A7F12000314901EB0010F0
:10155000015D2D4800682D4A126800EBD2102D4A1B
:1015600002EBC012294803780068401CDFF89CC0D9
:10157000CCF8000003F07F001154601CC4B2082CAA
:10158000D9DB721ED206110E6A1E012303EB420242
:10159000D0B2FFF7A7FF681E012101EB40001A49F6
:1015A0000860701EC00019490860002427E0A7F1F8
:1015B0002001174A02EB011204F10801505C00F00F
:1015C000F1F8A7F12000124901EB001104F1080025
:1015D000095C0D4800680D4A126800EBD2100D4AF4
:1015E00002EBC012094803780068401CDFF81CC0F9
:1015F000CCF8000003F07F001154601CC4B2082C2A
:10160000D5DBBDE8F08100001400002018000020A8
:10161000202D0008380000202DE9F04105460E4637
:101620001746721E1207110E6A1E5206100EFFF7A1
:1016300059FF681E400034490860701E000133499C
:10164000086000241FE0324901EB4711085D00F0FB
:10165000A9F82F4800EB4710015D2B4800682B4A82
:10166000126800EBD2102B4A02EBC0122748037815
:101670000068401CDFF894C0CCF8000003F07F0045
:101680001154601CC4B2102CDDDB721E1207110E47
:101690006A1E012303EB4202D0B2FFF723FF681E4C
:1016A000012101EB400018490860701E0001174934
:1016B0000860002423E0164901EB471204F11001F1
:1016C000505C00F06FF8124800EB471104F1100075
:1016D000095C0D4800680D4A126800EBD2100D4AF3
:1016E00002EBC012094803780068401CDFF81CC0F8
:1016F000CCF8000003F07F001154601CC4B2102C21
:10170000D9DBBDE8F08100001400002018000020A3
:1017100020330008380000202DE9F04780460E46AF
:1017200017461D46002415E0281B411E0A20FFF71E
:10173000B6FEB7FBF0F00A21B0FBF1F201FB12009C
:1017400000F130093019C1B24A464046FFF7DCFECD
:10175000601CC4B2AC42E7DBBDE8F0872DE9F04184
:1017600007460E461546002407E02A5D3019C1B22F
:101770003846FFF7C9FE601CC4B2285D0028F4D1CA
:10178000BDE8F08110B50446FFF7E2FD7820FFF7D1
:10179000B7FD0020FFF7B4FD2046FFF7B1FDFFF7CE
:1017A000EFFD10BD10B50446FFF7D2FD7820FFF71E
:1017B000A7FD4020FFF7A4FD2046FFF7A1FDFFF79E
:1017C000DFFD10BD7047000029B1064AD26902430F
:1017D000044BDA6104E0034AD2698243014BDA61C7
:1017E000704700000010024029B1064A9269024386
:1017F000044B9A6104E0034A92698243014B9A6167
:10180000704700000010024030B500210022002483
:1018100000232D4D6D6805F00C0121B1042905D080
:10182000082923D105E0294D056022E0274D0560F8
:101830001FE0254D6D6805F47012234D6D6805F4A9
:101840008034022505EB92421CB9214D55430560B9
:101850000BE01D4D6D6805F400351DB11C4D554361
:10186000056002E0194D5543056002E0174D056023
:1018700000BF00BF144D6D6805F0F0010909154D5A
:101880006B5C0568DD4045600F4D6D6805F4E061F7
:10189000090A104D6B5C4568DD4085600A4D6D6836
:1018A00005F46051C90A0B4D6B5C4568DD40C560AD
:1018B000054D6D6805F44041890B074D6B5CC568AB
:1018C000B5FBF3F5056130BD0010024000127A004F
:1018D00000093D000000002010000020704710B5F6
:1018E00000F002F810BD00000CB50020019000903F
:1018F0003348006840F480303149086000BF304808
:10190000006800F4003000900198401C019000989D
:1019100018B90198B0F5A06FF1D12948006800F41A
:10192000003010B10120009001E0002000900098EC
:10193000012843D12348006840F010002149086085
:101940000846006820F0030008600846006840F080
:10195000020008601A484068194948600846406813
:1019600048600846406840F4806048600846406827
:1019700020F47C1048600846406840F4E810486055
:101980000846006840F08070086000BF0C4800689E
:1019900000F000700028F9D00948406820F00300EA
:1019A000074948600846406840F00200486000BFB0
:1019B0000348406800F00C000828F9D10CBD000075
:1019C00000100240002002407047000010B513488C
:1019D000006840F00100114908600846406810495D
:1019E00008400E494860084600680E4908400B4907
:1019F00008600846006820F48020086008464068B7
:101A000020F4FE0048604FF41F008860FFF767FF76
:101A10004FF000600449086010BD00000010024053
:101A20000000FFF8FFFFF6FE08ED00E02DE9F041B1
:101A300032480078401C3149087008460078022876
:101A40002BD12F480078012803D10A212D48FEF719
:101A500077FE2D48B0F90000FEF7ECFC06460022A8
:101A60002A4BFEF706FC0446FEF702FD01B22848A9
:101A700002780078401C264B1870224820F812107B
:101A8000184600780A2805D101201D490870092050
:101A9000194608700020194908700121880700F0D4
:101AA0008BF8012828D11B4908701748B0F90000AD
:101AB000FEF7C0FC06460022144BFEF7DAFB044694
:101AC00022460B4614A000F017FB022011490870B3
:101AD0000D48B0F90000FEF7ADFC064600220B4BA6
:101AE000FEF7C7FB044622460B4610A000F004FB9D
:101AF0000121880700F051F8BDE8F0812B0000209B
:101B00002C00002038280020280000200000B03FD2
:101B10002A00002024000020CAB5CAB1CEC2B6C82F
:101B20003A252E3266A1E60A00000000252E346612
:101B30000A00000010B50121124800F03DF801280C
:101B40001FD111480078401C0F490870087800EB3D
:101B5000D0714910A0EB41010B4A11700B4800787D
:101B600038B11046007820B101210948FFF75AF832
:101B700003E001210648FFF753F80121014800F076
:101B80000CF810BD00040040200000201F000020C1
:101B9000000C0140CA4302827047CA430282704768
:101BA00021B1028842F00102028004E002884FF66F
:101BB000FE731A400280704730B5024600200023B1
:101BC0000024158A05EA0103958905EA010413B189
:101BD0000CB1012000E0002030BD1AB183890B4315
:101BE000838102E083898B438381704701894FF6AB
:101BF000F872114001817047002202881D4B984203
:101C00000ED01D4B98420BD0B0F1804F08D01B4B2B
:101C1000984205D01A4B984202D01A4B984204D1F0
:101C20004FF68F731A404B881A43174B984207D0D0
:101C3000164B984204D04FF6FF431A40CB881A4304
:101C400002808B8883850B8803850A4B98420BD0D2
:101C5000094B984208D00E4B984205D00D4B984244
:101C600002D00D4B984201D10B7A03860123838267
:101C700070470000002C0140003401400004004087
:101C800000080040000C004000100040001400401C
:101C90000040014000440140004801401FB50121BF
:101CA0000846FFF791FD4FF08040FFF79FFF0020AF
:101CB000ADF80A00ADF8060042F23060ADF8080059
:101CC00041F61F40ADF8040000208DF80C0001A97A
:101CD0004FF08040FFF790FF01218807FFF75AFF80
:101CE000012211469007FFF778FF4FF4A060FFF73D
:101CF00005FA1C208DF8000001208DF80300022059
:101D00008DF8010001208DF802006846FFF7BEF94A
:101D100001218807FFF744FF1FBD00001FB5012107
:101D20000220FFF751FD1B48FFF760FF0020ADF8D0
:101D30000A00ADF806003120ADF8080040F2CF20CF
:101D4000ADF8040000208DF80C0001A91148FFF740
:101D500053FF01210F48FFF71DFF012211460D48D7
:101D6000FFF73BFF4FF4A060FFF7C8F91D208DF887
:101D7000000001208DF8030003208DF801000120F0
:101D80008DF802006846FFF781F901210148FFF74D
:101D900007FF1FBD0004004005480078012804D15A
:101DA000002003490870012070470020FCE7000074
:101DB0001E00002010B540F22551094800F0D4F86B
:101DC00001280BD107490870054800F089F9064938
:101DD000087040F22551024800F09EF810BD000046
:101DE000003801401E0000201D00002010B50446F0
:101DF0002146054800F079F900BF8021024800F033
:101E0000A6F80028F9D010BD003801400548007838
:101E1000012804D1002003490870012070470020E8
:101E2000FCE700002D00002010B540F225512248AB
:101E300000F09AF801283ED11F4800F051F9C4B2D1
:101E40001E48007858B9402C2FD11D48007860B347
:101E500000201C49087001201849087025E0174827
:101E6000007801280FD10D2C03D1022013490870EE
:101E70001BE0154813490978445412480078401C67
:101E80001049087011E00D48007802280DD10A2C85
:101E90000BD10020094908700B490A4A127888546E
:101EA0000749087001200949087040F2255102488D
:101EB00000F032F800BF10BD0044004031000020A7
:101EC0002F000020300000204C2800202D00002092
:101ED00010B504462146054800F007F900BF8021EF
:101EE000024800F034F80028F9D010BD004400404A
:101EF00070B50446002504E0605DFFF7E9FF681C4B
:101F000085B2605D0028F7D170BD000001490870FE
:101F1000704700002F00002010B50022002340F67B
:101F20006A14A14200D100BF0A1201249440A3B256
:101F3000DC43048010BD21B1828942F400528281C9
:101F400004E082894DF6FF731A4082817047024691
:101F50000020B1F5007F00D100BF13880B400BB10A
:101F6000012000E00020704770B5024600240023E5
:101F70000025002040F66A16B14200D100BFC1F32F
:101F8000421501F01F03012606FA03F3012D02D1C9
:101F90009689334006E0022D02D1168A334001E0D3
:101FA000968A33400C12012606FA04F4168834404F
:101FB00013B10CB1012000E0002070BDF0B5034664
:101FC000002400260025002040F66A17B94200D1FF
:101FD00000BF1846C1F3421401F01F06012707FA9B
:101FE00006F5012C01D10C3004E0022C01D1103097
:101FF00000E014301AB107682F43076002E0076859
:10200000AF430760F0BD00002DE9F04786B00546FC
:102010000E460024A24600BFA1460027B08900B1A9
:1020200000BF2F462C8A4CF6FF700440F088044312
:102030002C82AC894EF6F3100440B08831890843F5
:10204000718908430443AC81AC8A4FF6FF400440D9
:10205000B0890443AC8201A8FFF7D6FB1F48874232
:1020600002D1DDF810A001E0DDF80CA0A88900F491
:10207000004040B10AEBCA0000EB0A103168490089
:10208000B0FBF1F807E00AEBCA0000EB0A10316878
:102090008900B0FBF1F86420B8FBF0F004012009DE
:1020A000642101FB1089A88900F4004040B132206E
:1020B00000EBC900B0FBF1F000F00700044308E0BA
:1020C000322000EB09106421B0FBF1F000F00F00AA
:1020D00004432C8106B0BDE8F087000000380140C1
:1020E00001468888C0F308007047C1F30802828067
:1020F000704700BFFEE700000FB4054B10B503A901
:10210000044A029800F0CAF810BC5DF814FB000005
:10211000CD2900083400002002E008C8121F08C1C1
:10212000002AFAD170477047002001E001C1121F58
:10213000002AFBD1704700002DE9FF5FDDE9022096
:10214000010DDDF838B0024318D044F61050A1F26A
:10215000FF3141430D140F98012820D0A5EB0B004F
:10216000401C5FEA000A4FF00004474EDFF81C9164
:10217000A046504616D5CAF1000728E00F98012462
:1021800043A2012808D0002100980F9BC0E900213C
:10219000C0E90243BDE8FF9F6FEA0B01F4E7CBF112
:1021A0000000DEE7074612E0F80707D02246334674
:1021B00040464946FEF75DF880468946224633464A
:1021C00010461946FEF755F804460E467F10002FBC
:1021D000EAD1DDE90201BAF1000F42464B4602DACC
:1021E000FEF747F801E0FEF7B6F804460E46002277
:1021F000284BFEF78DF903D84FF0FF30014607E07A
:102200000022254B20463146FDF78CFFFEF76DFA84
:10221000102409E0002C0ADB0A220023FEF7A6F9AD
:10222000019B30321A55641E50EA0102F2D1641C3F
:10223000019AC4F1110314440F9A012A03D0012218
:1022400008430DD10AE0084304D000204FF0110BE1
:102250000F9080E7A3EB0B056D1E0DE05B4504DDE1
:102260004FF0000205F1010504E003DA4FF000022F
:10227000A5F10105002AECD000980F99C0E90231C0
:10228000C0E9004586E70000000024400000F03F60
:10229000300000000000F0430000E03F2DE9FF4F58
:1022A00095B09B468946064600250FE2252877D142
:1022B00000242746F84A0121059400E0044316F85B
:1022C000013F203B01FA03F01042F7D130782A2871
:1022D00011D06FF02F033078A0F13002092A16D800
:1022E000059A44F0020402EB820203EB420210441E
:1022F000761C0590EFE759F8042B0592002A03DAC3
:10230000504244F40054059044F00204761C3078A6
:102310002E2816D116F8010F44F004042A280DD0F7
:102320006FF02F023078A0F13003092B09D807EBAA
:10233000870302EB4303C718761CF3E759F8047BC5
:10234000761C30786C280FD006DC4C2817D0682813
:102350000DD06A2814D104E0742810D07A280FD147
:102360000DE044F400140AE044F4801401E044F465
:1023700040147278824202D104F58014761C761CD7
:10238000307866280BD013DC582877D009DC002879
:1023900075D04528F6D04628F4D047281AD19DE1BB
:1023A00018E0632835D0642879D0652812D195E1EA
:1023B000702873D008DC6728F1D069286FD06E28A8
:1023C0000DD06F2806D1B5E073282CD0752875D0B4
:1023D000782874D05A46179990476D1C75E1C4F35C
:1023E0000250022809D003280DD0D9F80010042883
:1023F0000DD00D6009F1040967E1D9F80010EA1762
:10240000C1E90052F6E7D9F800100D80F2E70D702F
:10241000F0E719F8041B8DF8001000208DF801007A
:10242000EA46012003E059F804AB4FF0FF306107A2
:102430004FF0000102D40DE008F101018846B942D5
:102440000FDA8045F8DB1AF808100029F4D108E00B
:1024500008F1010188468142FADB1AF808100029C8
:10246000F6D105985B46A0EB080721463846179A37
:1024700000F094FA284400EB080507E04DE029E15C
:102480000DE01AF8010B5A4617999047B8F1010868
:10249000F7D25B4621463846179A13E142E00A22FA
:1024A0000092C4F302524FF0000A022A08D059F8F1
:1024B00004CB032A4FEAEC710AD00DE029E02AE0B0
:1024C00009F1070121F00702F2E802C1914609E093
:1024D0000FFA8CFC4FEAEC71042A03D14FFA8CFC02
:1024E0004FEAEC71002907DA0A460021DCF1000C02
:1024F00061EB02012D2202E0220504D52B228DF88A
:102500000420012203E0E20701D02022F7E79046F1
:1025100059E00A2102E010220DE010214FF0000ADC
:1025200000910BE010224FF0000A44F00404082749
:10253000009203E008224FF0000A0092C4F3025216
:10254000022A05D059F804CB0021032A08D009E05B
:1025500009F1070121F00702F2E802C1914605E006
:102560001FFA8CFC042A01D10CF0FF0C4FF000087C
:10257000220728D5702806D0009B83F0100353EA69
:102580000A0305D00EE040228DF80420012208E065
:102590005CEA010206D030228DF804208DF8050097
:1025A00002229046009B83F0080353EA0A030AD1F3
:1025B0005CEA010201D1620705D530228DF80420C2
:1025C0004FF001087F1E582804D034A003900EA8B5
:1025D00002900DE036A0F9E753466046009AFDF7F9
:1025E000C5FF84460398825C0298401E02900270E8
:1025F0005CEA0100F0D1029806A9081A00F1200A4D
:10260000600702D524F4803400E00127574502DD3D
:10261000A7EB0A0000E0002000EB0A0100900598FB
:102620004144401A0590E00306D45B462146179AC0
:10263000059800F0B3F90544002706E001A85A46C2
:10264000C05D179990476D1C7F1C4745F6DBE00382
:102650000CD55B462146179A059800F09FF9054472
:1026600004E030205A46179990476D1C0099481E87
:1026700000900029F5DC08E0029802995A4600789B
:10268000491C0291179990476D1CBAF10001AAF1FB
:10269000010AF1DC65E10000092801003031323324
:1026A000343536373839616263646566000000008E
:1026B0003031323334353637383941424344454678
:1026C0000000000000F058F90544761C307800281E
:1026D0007FF4ECAD19B02846BDE8F08F620700D456
:1026E000062709F1070222F0070CFCE80223E14665
:1026F00003F000485FEA080C02D00FF2702C0DE0E6
:102700005FEA045C02D50FF2682C07E05FEAC47C44
:1027100002D00FF2602C01E0AFF2700C4FF0FF38E6
:1027200023F00043CDF850C065280CD006DC4528C6
:1027300009D046281DD047283DD13DE0662818D055
:1027400067287ED138E00021112F01DB112000E045
:10275000781CCDE9000106A90EA8FFF7EDFCDDE924
:102760000F010E9A03910021009207F1010A0491D2
:102770004DE04FF000400097CDE9011006A90EA8EA
:10278000FFF7DAFCDDE90F0203920E9B119900229C
:10279000DDF80CA00093049211B9791C00EB010A3A
:1027A000B7EB0A0004D4C0F1FF3007F1010A04902E
:1027B000AAEB0700019044E0012F00DA0127002175
:1027C000112F01DD112000E03846CDE9000106A9F6
:1027D0000EA8FFF7B1FCDDE90F010E9A039100216D
:1027E00004910092BA4621070CD40399514500DAAE
:1027F0008A46BAF1010F05DD009AAAF10101515C88
:10280000302908D0B84202DA10F1040F06DA0121AB
:10281000CDE9011015E0AAF10101E9E7002805DC86
:10282000049901440491AAEB000102E0411C5145C6
:1028300000DD8A460499401A401C01904FF0004088
:102840000290200704D40198504501DBCDF80480A4
:1028500000208DF84F0002980DF14F07B0F1004FA6
:1028600025D02B200E9002984FF0020800280CDA99
:10287000404202902D200E9007E00A210298FDF7B9
:102880005FFE3031029007F8011DB8F10001A8F198
:102890000108F2DC02980028EFD1791E0E9808702A
:1028A000307800F0200040F0450007F8020D12A833
:1028B000C01B00F107081498007800B1012000EB5C
:1028C0000A01019801EBE07105984144401A401E4D
:1028D0000590E00306D45B462146179A059800F060
:1028E0005DF805441498007818B15A461799904736
:1028F0006D1CE00324D55B462146179A059800F02D
:102900004DF805441CE00498002807DBDDE90301CD
:10291000884203DD0098405C179901E01799302048
:102920005A469047049805F10105401C049001980F
:10293000401E019004D12E205A46179990476D1CD5
:10294000BAF10001AAF1010ADDDC05E017F8010B7C
:102950005A46179990476D1CB8F10001A8F101087B
:10296000F4DC5B462146179A0598ABE62D00000083
:102970002B000000200000002DE9F0410446002556
:102980001E461746880404D405E039462020B04787
:102990006D1C641EF9D52846BDE8F0812DE9F04193
:1029A000044600251E469046C80301D5302700E0A6
:1029B0002027880404D505E041463846B0476D1C01
:1029C000641EF9D52846BDE8F081000070B50446C4
:1029D0000D4608480078012802D1E0B2FFF706FA58
:1029E00004480078022802D1E0B2FFF771FA2046CD
:1029F00070BD000024000020FEF7D6FCFDF7DCFED1
:102A0000FFF74CF9FEF78AFAFEF7E4FAFDF718FF34
:102A10004FF4C8710020FEF71EFD0120FDF7DDFF19
:102A200099A0FFF765FAFEF727FC04E098A20321BE
:102A30000220FEF793FEFDF703FF0028F6D198A2CF
:102A400003210220FEF78AFE0120FDF7C6FF98A2AF
:102A500003210220FEF782FE14E1FFF79DF9012811
:102A600050D1FEF709FC96480078012805D10020D6
:102A700094490870FEF700FC44E091480078022871
:102A800005D101208F490870FEF7F6FB3AE08C482B
:102A90000078032805D101208B4908708B49087004
:102AA00030E087480078042805D189480078401E26
:102AB0008749087026E082480078052805D18448B7
:102AC0000078401C824908701CE07D480078062888
:102AD00005D180480078401E7E49087012E0784891
:102AE0000078072805D17B480078401C7949087098
:102AF00008E073480078FF2804D10020724908706C
:102B000072490870FFF782F9012868D1724800788D
:102B100068281BD170484078692817D16E488078A2
:102B2000672813D16C48C07868280FD16A4840796B
:102B3000303869490979303901EB810100EB4100F6
:102B40006449087065A0FFF7D3F945E06248007852
:102B500064281BD1604840786F2817D15E48807880
:102B6000772813D15C48C0786E280FD15A48407935
:102B7000303859490979303901EB810100EB4100C6
:102B80005349087055A0FFF7B3F925E05248007883
:102B90006D281BD150484078652817D14E48807861
:102BA0006E2813D14C48C07875280FD1454800785D
:102BB000401C44490870087800EBD0714910A0EB24
:102BC0004101404A1170FEF757FB05E002204749DA
:102BD000087047A0FFF790FA0120FFF797F93A48ED
:102BE000007800283ED13B480078FDF734FC0446CD
:102BF0000D464348B0F90000FDF71CFC804600225A
:102C0000404BFDF736FB064622462B46FDF780FC7F
:102C100015D32F480078FDF71EFC04460D463848B2
:102C2000B0F90000FDF706FC06460022354BFDF723
:102C300020FB804622462B46FDF752FC0FD2012096
:102C40002A49087030A0FFF757FA02202749087078
:102C50002DA0FFF751FA01201C49087002E0002066
:102C60001A490870FDF77AFD254908801548007853
:102C700010B9FEF707F805E012480078012801D1E5
:102C8000FEF7CEF8E9E6000053746172743A000072
:102C90004453313842323020204552520000000067
:102CA0004453313842323020205355430000000055
:102CB0002020202020202020202020200000000094
:102CC0001D00002025000020260000201F000020FD
:102CD00022000020230000204C2800204564697455
:102CE0002053756363657373210A0000240000207C
:102CF0004552524F525F434F4D4D414E44000000EC
:102D0000280000200000B03F212121CEC2B6C8D249
:102D1000ECB3A32CC7EBD7A2D2E221212100000003
:102D200000000000000000000000000000000000A3
:102D3000000000F800000000000000333000000038
:102D400000100C06100C060000000000000000003F
:102D500040C07840C0784000043F04043F040400B1
:102D6000007088FC08300000001820FF211E0000C1
:102D7000F008F000E018000000211C031E211E00D6
:102D800000F00888700000001E212324192721105C
:102D900010160E00000000000000000000000000FF
:102DA000000000E0180402000000000718204000A6
:102DB00000020418E0000000004020180700000096
:102DC000404080F0804040000202010F01020200FA
:102DD000000000F0000000000101011F01010100DE
:102DE000000000000000000080B070000000000043
:102DF00000000000000000000001010101010101CC
:102E00000000000000000000003030000000000062
:102E10000000000080601804006018060100000037
:102E200000E010080810E000000F102020100F0034
:102E3000001010F8000000000020203F20200000BB
:102E40000070080808887000003028242221300013
:102E500000300888884830000018202020110E001B
:102E60000000C02010F8000000070424243F2400C4
:102E700000F80888880808000019212020110E0099
:102E800000E0108888180000000F112020110E00AB
:102E900000380808C83808000000003F00000000A3
:102EA0000070880808887000001C222121221C0064
:102EB00000E010080810E0000000312222110F008D
:102EC000000000C0C0000000000000303000000022
:102ED0000000008000000000000080600000000092
:102EE00000008040201008000001020408102000AB
:102EF00040404040404040000404040404040400F6
:102F0000000810204080000000201008040201008A
:102F1000007048080808F00000000030360100008A
:102F2000C030C828E810E0000718272423140B003D
:102F30000000C038E0000000203C230202273820B7
:102F400008F8888888700000203F202020110E009B
:102F5000C030080808083800071820202010080092
:102F600008F808080810E000203F202020100F007B
:102F700008F88888E8081000203F20202320180047
:102F800008F88888E8081000203F200003000000AF
:102F9000C03008080838000007182020221E020050
:102FA00008F808000008F808203F210101213F200F
:102FB000000808F8080800000020203F202000003A
:102FC00000000808F8080800C08080807F0000002A
:102FD00008F888C028180800203F20012638200063
:102FE00008F8080000000000203F202020203000CA
:102FF00008F8F800F8F80800203F003F003F2000E4
:1030000008F830C00008F808203F200007183F00EB
:10301000E01008080810E0000F10202020100F001A
:1030200008F808080808F000203F2101010100000D
:10303000E01008080810E0000F18242438504F0052
:1030400008F8888888887000203F2000030C302012
:1030500000708808080838000038202121221C0050
:10306000180808F8080818000000203F2000000099
:1030700008F808000008F808001F202020201F0082
:103080000878880000C83808000007380E010000E2
:10309000F80800F80008F800033C0700073C0300AC
:1030A000081868808068180820302C03032C302012
:1030B0000838C800C83808000000203F2000000081
:1030C00010080808C83808002038262120201800D9
:1030D000000000FE020202000000007F40404000AD
:1030E000000C30C000000000000000010638C000E5
:1030F00000020202FE000000004040407F0000008D
:1031000000000402020204000000000000000000B1
:1031100000000000000000008080808080808080AF
:103120000002020400000000000000000000000097
:1031300000008080808000000019242222223F208D
:1031400008F8008080000000003F112020110E00D0
:103150000000008080800000000E1120202011005F
:10316000000000808088F800000E112020103F2011
:103170000000808080800000001F22222222130095
:10318000008080F0888888180020203F20200000E0
:103190000000808080808000006B94949493600095
:1031A00008F8008080800000203F210000203F20A0
:1031B00000809898000000000020203F20200000A0
:1031C000000000809898000000C08080807F000090
:1031D00008F8000080808000203F24022D3020006D
:1031E000000808F8000000000020203F2020000018
:1031F0008080808080808000203F20003F20003F32
:103200008080008080800000203F210000203F203F
:103210000000808080800000001F202020201F00F0
:10322000808000808000000080FFA12020110E001F
:103230000000008080808000000E112020A0FF8010
:10324000808080008080800020203F2120000100BD
:103250000000808080808000003324242424190012
:10326000008080E0808000000000001F202000001F
:103270008080000000808000001F202020103F2060
:10328000808080000080808000010E3008060100F0
:1032900080800080008080800F300C030C300F0095
:1032A00000808000808080000020312E0E312000C0
:1032B000808080000080808080818E7018060100F0
:1032C00000808080808080000021302C222130000E
:1032D00000000000807C020200000000003F40402F
:1032E00000000000FF00000000000000FF000000E0
:1032F0000002027C800000000040403F000000000F
:1033000000060101020204040000000000000000A9
:10331000007848487800000000000000000000002D
:1033200080A0908E888888FF888888888880800020
:1033300020201008040201FF0102040810202000D0
:103340000042820202FE020202FE020202C20000EB
:1033500040404146407F4040407F40444340400021
:1033600040484848FF484842A29E82A2C2BE000090
:1033700080601F207F4444404F484848484F4000E9
:10338000100C048414640506F404040404140C00F2
:10339000048484444724140C070C1424448404003B
:1033A00000FC848484FC001010101010FF1010002A
:1033B000003F1010103F0000010640807F00000019
:1033C0001060028C0000FE9292929292FE00000029
:1033D00004047E01407E42427E427E42427E4000A4
:1033E0000000FC242424FC252624FC24242404009E
:1033F00040308F80844C55252525554C8080800099
:10340000000000000000FF4040404040400000003D
:103410004040404040407F404040404040404000AD
:10342000020202020202FE020242820202020200C2
:10343000000000000000FF00000000010600000086
:1034400000FE225A8600FE9292929292FE000000A6
:1034500000FF04080700FF4020030C142241400035
:103460000000FE0242424242FA42424242C202008E
:1034700080601F804020180601004080403F00000F
:103480000000F888888888FF88888888F80000000D
:10349000808081444830102F20404040818080004F
:1034A000000000000000000000000000000000001C
:1034B000000000000000000000000000000000000C
:1034C00000000000000000000000000000000000FC
:1034D00000000000000000000000000000000000EC
:1034E00000000000000000000000000000000000DC
:1034F00000000000000000000000000000000000CC
:103500000000000000F8C000000000000000000003
:1035100000000000000000000000000000000000AB
:103520000000000000000000000000000080E0C07B
:10353000800000000000000000000000000000000B
:10354000000000000000000000000000000000007B
:10355000000000000000000000000000000000006B
:10356000000000000080E0C08000000000000000BB
:10357000000000000000000000000000000000004B
:103580000080C0F0FFFFFFFCE080000000000000B2
:10359000000000000000000000000000000000002B
:1035A0000000000000000000020606FEFFFFFFFF13
:1035B000FFFFFE060602C2E2C2C2C2C2C2C242424D
:1035C00042424252527A7E7E7A52524242424242B3
:1035D000C2C2E2E2C2C2C28282020202020202024B
:1035E000020206868FDFFFFFCFCFC6E6E2E2E0C031
:1035F00080000000E0E0E0C0C0C0C0C080808286E3
:1036000087878F8FFFFFFF9F8F8787868280C0C04D
:10361000C0E0E0E0E0C0C0C08000000000000000AA
:103620000000000000000000000000FFFFFFFFFF9F
:10363000FFFFFF000000FFFFFFFFFFFFFFFF888885
:103640008888888888888888888888888880808012
:10365000FFFFFFFFFFFFFFFF00000000FEFEFEFE7A
:10366000FEFE0000FFFFFFFFFFFF0101F1F1F1F19E
:10367000F1F10000FFFFFFFFFFFFFFFFFF10181831
:10368000383C7CFEFFFFFFFE7E3C3818181010FF10
:10369000FFFFFFFFFFFFFF01000000000000000030
:1036A00000000000000080C0E0F0FE7F7F3F1F0FA1
:1036B000C7C3E0E0E0F073737371793938383020B4
:1036C000200000FFFFFFFFFFFFFFFF002020203151
:1036D0003B39397171717170E0E0E0E0FFFF7F3FCD
:1036E0001F070000FFFFFFFFFFFF00003F1F0F0746
:1036F000030100001F1F1F1F1F0F0F07038282C23D
:10370000C2C2E2F2FBFFFFF2E2E2C2C2C282820761
:10371000070F0F1F1F1F1F00000000000000000008
:103720000000000002010101010000000000000093
:103730000000010101030200000000000000000081
:103740000000001F1F1F0F0F0703010000000000F3
:10375000000000000000020203010101000000005F
:10376000000000001F1F0F0F0703000000000000F3
:103770000000000000000000000000000000000148
:1037800001030F3FFFFFFFFF1F07030100000000C1
:103790000000000000000000000000000000000029
:1037A0000000000000000000000000000000000019
:1037B0000000000000000000000000000000000009
:1037C00000000000000000000000000000000000F9
:1037D00000000000000000000000000000000000E9
:1037E00000000000000000000000000000000000D9
:1037F00000000000000000000000000000000000C9
:10380000000000001FFF1F0000000000000000007B
:1038100000000000000000000000000000000000A8
:103820000000000000000000000000000000000098
:103830000000000000000000000000000000000088
:103840000000000000000000000000000000000078
:103850000000000000000000000000000000000068
:103860000000000000000000000000000000000058
:103870000000000000000000000000000000000048
:103880000000000000010000000000000000000037
:103890000000000000000000000000000000000028
:1038A000C03800080000002038000000182100087F
:1038B000F838000838000020782C00002821000883
:1038C00000000000010203040102030406070809C6
:1038D00002040608000000000000000000000000D4
:1038E0000000141E0000000019000000000000018C
:0838F0000000000000000000D0
:04000005080000ED02
:00000001FF
